:10000000BFC00000D8C00000D6C00000D4C00000AF
:10001000D2C00000D0C00000CEC00000CCC00000A4
:10002000CAC00000C8C0000062C10000CCC100000E
:10003000C2C00000C0C00000BEC00000BCC00000C4
:10004000BAC00000B8C00000B6C00000B4C00000D4
:10005000B2C00000B0C00000AEC00000ACC00000E4
:10006000AAC00000A8C00000A6C00000A4C00000F4
:10007000A2C00000A0C000009EC000009CC0000004
:100080009AC0000098C0000096C0000094C0000014
:1000900092C0000090C000008EC000008CC0000024
:1000A0008AC0000088C0000086C000000001000077
:1000B000E3001200020000F50022002200001701F8
:1000C0003F00210000070109000300005601040160
:1000D0000309045A0110020309046C011200000113
:1000E000C106001201000200000020C0167C0400BE
:1000F000010102000109022200010100C0320904CD
:1001000000000103010100092111010001223F004B
:100110000705830308000105010906A10175019582
:1001200008050719E029E7150025018102950175E9
:1001300008810395057501050819012905910295A6
:1001400001750391039506750815002568050719C3
:100150000029688100C00403090410034D006600F3
:1001600067004E0061006D006500000012034B0047
:100170006500790062006F00610072006400000099
:1001800011241FBECFEFDAE0DEBFCDBF11E0A0E04B
:10019000B1E0EEEDF6E002C005900D92A230B1079D
:1001A000D9F711E0A2E0B1E001C01D92AD30B10776
:1001B000E1F702D092C224CFCF93DF9380E88093FF
:1001C00061001092610081E08AB914B815B88FEF10
:1001D0008BB91ED034D08823E9F380E29EE420E975
:1001E00031E0F9013197F1F70197D9F7C0E9D1E092
:1001F0001A9905C087E360E06DD05E9A01C05E98F1
:1002000088E893E1FE013197F1F7019789F3FACF7E
:1002100081E08093D70080EA8093D80082E189BD95
:1002200009B400FEFDCF80E98093D8001092E00071
:1002300010920A018CE08093E200789408958091F6
:100240000A01089580910A01882309F441C02FB75B
:10025000F89483E08093E9009091E4009E5C33E0A1
:100260008091E80085FD0EC02FBF80910A01882390
:1002700079F18091E400891759F12FB7F894309300
:10028000E900EECF809102018093F1001092F1001D
:10029000809103018093F100809104018093F1002B
:1002A000809105018093F100809106018093F10017
:1002B000809107018093F100809108018093F10003
:1002C0008AE38093E80010920B012FBF80E008952D
:1002D0008FEF08956093020180930301B3DF8823B9
:1002E00029F41092020110920301ACCF08951F92DD
:1002F0000F920FB60F9211242F938F939F9380919B
:10030000E1001092E100982F83FF0FC01092E900E6
:1003100081E08093EB001092EC0082E28093ED008C
:1003200088E08093F00010920A0192FF44C080910F
:100330000A01882309F43FC0209100012223D9F14A
:1003400080910C018F5F80930C0190E0837090701E
:10035000892B89F583E08093E9008091E80085FF8F
:100360002AC080910B018F5F80930B01821719F5D2
:1003700010920B01809102018093F1001092F10024
:10038000809103018093F100809104018093F1003A
:10039000809105018093F100809106018093F10026
:1003A000809107018093F100809108018093F10012
:1003B0008AE38093E8009F918F912F910F900FBE59
:1003C0000F901F9018951F920F920FB60F92112445
:1003D0000F931F932F933F934F935F936F937F934D
:1003E0008F939F93AF93BF93EF93FF931092E90086
:1003F0008091E80083FF5BC14091F1003091F100F2
:100400008091F100682F70E02091F100922F80E040
:10041000682B792B8091F100A82FB0E02091F1009A
:10042000922F80E0A82BB92B1091F1000091F100E0
:1004300082EF8093E800363009F05AC023EB30E0B9
:10044000A90145505040F90137978591949186173D
:10045000970701F5FA01859194918A179B07D1F4CA
:100460009A012E5F3F4FF901659174912E5F3F4FC6
:10047000F9014491212F30E0902F80E0282B392B77
:100480002F3F310519F010F02FEF30E0241758F40A
:10049000422F09C0295F3F4F495F5F4FF0E0243E84
:1004A0003F0789F604C15EEF8091E800282F30E015
:1004B000C90185709070892BB9F322FDFBC0342FE0
:1004C000413208F030E2232FCB0106C0FC01019637
:1004D000E491E093F10021502223C1F7630F711DD5
:1004E000431B5093E8004423F9F63032E9F2E2C0AE
:1004F000353061F48EEF8093E8008091E80080FF52
:10050000FCCF862F80688093E300D4C0393031F56A
:10051000442309F071C060930A018EEF8093E800D4
:100520008DED90E021E02093E900FC010196E4913B
:10053000E093EB00EE2369F0AC014F5F5F4FFC01ED
:1005400084918093EC00CA010196FA0134913093B2
:10055000ED002F5F253039F78EE149C0383051F476
:10056000403809F049C08091E80080FFFCCF8091BD
:100570000A017BC03323D1F48091E80080FFFCCFD7
:10058000423811F080E00DC0A093E9008091EB00AB
:1005900090E025E0969587952A95E1F78170109275
:1005A000E9008093F1001092F1007DC0313011F02C
:1005B000333011F5423001F561157105E9F42A2F48
:1005C0002F77822F81508430B8F48EEF8093E8002B
:1005D0002093E900333009F46AC089E18093EB008D
:1005E00081E090E002C0880F991F2A95E2F780937E
:1005F000EA001092EA005EC0AB2B09F058C0413A05
:10060000B9F5313009F58091E80080FFFCCF809189
:1006100002018093F1001092F10080910301809318
:10062000F100809104018093F10080910501809395
:10063000F100809106018093F10080910701809381
:10064000F1008091080111C0323039F48091E80046
:1006500080FFFCCF8091000108C0333041F58091CC
:10066000E80080FFFCCF809101018093F1001BC066
:100670004132E9F4393061F48091E80082FFFCCF27
:100680008091F100809309018BEF8093E8000BC00B
:100690003A3029F47093000110920B0104C03B30F2
:1006A00031F4609301018EEF8093E80003C081E292
:1006B0008093EB00FF91EF91BF91AF919F918F914C
:1006C0007F916F915F914F913F912F911F910F916A
:0E06D0000F900FBE0F901F901895F894FFCF5B
:0206DE007D019C
:00000001FF
